{
  "_format": "hh-sol-artifact-1",
  "contractName": "tricks",
  "sourceName": "contracts/tricks.sol",
  "abi": [
    {
      "inputs": [],
      "stateMutability": "nonpayable",
      "type": "constructor"
    },
    {
      "anonymous": false,
      "inputs": [
        {
          "indexed": true,
          "internalType": "address",
          "name": "owner",
          "type": "address"
        },
        {
          "indexed": true,
          "internalType": "address",
          "name": "approved",
          "type": "address"
        },
        {
          "indexed": true,
          "internalType": "uint256",
          "name": "tokenId",
          "type": "uint256"
        }
      ],
      "name": "Approval",
      "type": "event"
    },
    {
      "anonymous": false,
      "inputs": [
        {
          "indexed": true,
          "internalType": "address",
          "name": "owner",
          "type": "address"
        },
        {
          "indexed": true,
          "internalType": "address",
          "name": "operator",
          "type": "address"
        },
        {
          "indexed": false,
          "internalType": "bool",
          "name": "approved",
          "type": "bool"
        }
      ],
      "name": "ApprovalForAll",
      "type": "event"
    },
    {
      "anonymous": false,
      "inputs": [
        {
          "indexed": true,
          "internalType": "address",
          "name": "previousOwner",
          "type": "address"
        },
        {
          "indexed": true,
          "internalType": "address",
          "name": "newOwner",
          "type": "address"
        }
      ],
      "name": "OwnershipTransferred",
      "type": "event"
    },
    {
      "anonymous": false,
      "inputs": [
        {
          "indexed": false,
          "internalType": "address",
          "name": "account",
          "type": "address"
        }
      ],
      "name": "Paused",
      "type": "event"
    },
    {
      "anonymous": false,
      "inputs": [
        {
          "indexed": true,
          "internalType": "address",
          "name": "from",
          "type": "address"
        },
        {
          "indexed": true,
          "internalType": "address",
          "name": "to",
          "type": "address"
        },
        {
          "indexed": true,
          "internalType": "uint256",
          "name": "tokenId",
          "type": "uint256"
        }
      ],
      "name": "Transfer",
      "type": "event"
    },
    {
      "anonymous": false,
      "inputs": [
        {
          "indexed": false,
          "internalType": "address",
          "name": "account",
          "type": "address"
        }
      ],
      "name": "Unpaused",
      "type": "event"
    },
    {
      "inputs": [
        {
          "internalType": "address",
          "name": "to",
          "type": "address"
        },
        {
          "internalType": "uint256",
          "name": "tokenId",
          "type": "uint256"
        }
      ],
      "name": "approve",
      "outputs": [],
      "stateMutability": "nonpayable",
      "type": "function"
    },
    {
      "inputs": [
        {
          "internalType": "address",
          "name": "owner",
          "type": "address"
        }
      ],
      "name": "balanceOf",
      "outputs": [
        {
          "internalType": "uint256",
          "name": "",
          "type": "uint256"
        }
      ],
      "stateMutability": "view",
      "type": "function"
    },
    {
      "inputs": [
        {
          "internalType": "uint256",
          "name": "tokenId",
          "type": "uint256"
        }
      ],
      "name": "getApproved",
      "outputs": [
        {
          "internalType": "address",
          "name": "",
          "type": "address"
        }
      ],
      "stateMutability": "view",
      "type": "function"
    },
    {
      "inputs": [
        {
          "internalType": "address",
          "name": "owner",
          "type": "address"
        },
        {
          "internalType": "address",
          "name": "operator",
          "type": "address"
        }
      ],
      "name": "isApprovedForAll",
      "outputs": [
        {
          "internalType": "bool",
          "name": "",
          "type": "bool"
        }
      ],
      "stateMutability": "view",
      "type": "function"
    },
    {
      "inputs": [],
      "name": "name",
      "outputs": [
        {
          "internalType": "string",
          "name": "",
          "type": "string"
        }
      ],
      "stateMutability": "view",
      "type": "function"
    },
    {
      "inputs": [],
      "name": "owner",
      "outputs": [
        {
          "internalType": "address",
          "name": "",
          "type": "address"
        }
      ],
      "stateMutability": "view",
      "type": "function"
    },
    {
      "inputs": [
        {
          "internalType": "uint256",
          "name": "tokenId",
          "type": "uint256"
        }
      ],
      "name": "ownerOf",
      "outputs": [
        {
          "internalType": "address",
          "name": "",
          "type": "address"
        }
      ],
      "stateMutability": "view",
      "type": "function"
    },
    {
      "inputs": [],
      "name": "pause",
      "outputs": [],
      "stateMutability": "nonpayable",
      "type": "function"
    },
    {
      "inputs": [],
      "name": "paused",
      "outputs": [
        {
          "internalType": "bool",
          "name": "",
          "type": "bool"
        }
      ],
      "stateMutability": "view",
      "type": "function"
    },
    {
      "inputs": [],
      "name": "renounceOwnership",
      "outputs": [],
      "stateMutability": "nonpayable",
      "type": "function"
    },
    {
      "inputs": [
        {
          "internalType": "address",
          "name": "to",
          "type": "address"
        },
        {
          "internalType": "string",
          "name": "uri",
          "type": "string"
        }
      ],
      "name": "safeMint",
      "outputs": [],
      "stateMutability": "nonpayable",
      "type": "function"
    },
    {
      "inputs": [
        {
          "internalType": "address",
          "name": "from",
          "type": "address"
        },
        {
          "internalType": "address",
          "name": "to",
          "type": "address"
        },
        {
          "internalType": "uint256",
          "name": "tokenId",
          "type": "uint256"
        }
      ],
      "name": "safeTransferFrom",
      "outputs": [],
      "stateMutability": "nonpayable",
      "type": "function"
    },
    {
      "inputs": [
        {
          "internalType": "address",
          "name": "from",
          "type": "address"
        },
        {
          "internalType": "address",
          "name": "to",
          "type": "address"
        },
        {
          "internalType": "uint256",
          "name": "tokenId",
          "type": "uint256"
        },
        {
          "internalType": "bytes",
          "name": "data",
          "type": "bytes"
        }
      ],
      "name": "safeTransferFrom",
      "outputs": [],
      "stateMutability": "nonpayable",
      "type": "function"
    },
    {
      "inputs": [
        {
          "internalType": "address",
          "name": "operator",
          "type": "address"
        },
        {
          "internalType": "bool",
          "name": "approved",
          "type": "bool"
        }
      ],
      "name": "setApprovalForAll",
      "outputs": [],
      "stateMutability": "nonpayable",
      "type": "function"
    },
    {
      "inputs": [
        {
          "internalType": "bytes4",
          "name": "interfaceId",
          "type": "bytes4"
        }
      ],
      "name": "supportsInterface",
      "outputs": [
        {
          "internalType": "bool",
          "name": "",
          "type": "bool"
        }
      ],
      "stateMutability": "view",
      "type": "function"
    },
    {
      "inputs": [],
      "name": "symbol",
      "outputs": [
        {
          "internalType": "string",
          "name": "",
          "type": "string"
        }
      ],
      "stateMutability": "view",
      "type": "function"
    },
    {
      "inputs": [
        {
          "internalType": "uint256",
          "name": "index",
          "type": "uint256"
        }
      ],
      "name": "tokenByIndex",
      "outputs": [
        {
          "internalType": "uint256",
          "name": "",
          "type": "uint256"
        }
      ],
      "stateMutability": "view",
      "type": "function"
    },
    {
      "inputs": [
        {
          "internalType": "address",
          "name": "owner",
          "type": "address"
        },
        {
          "internalType": "uint256",
          "name": "index",
          "type": "uint256"
        }
      ],
      "name": "tokenOfOwnerByIndex",
      "outputs": [
        {
          "internalType": "uint256",
          "name": "",
          "type": "uint256"
        }
      ],
      "stateMutability": "view",
      "type": "function"
    },
    {
      "inputs": [
        {
          "internalType": "uint256",
          "name": "tokenId",
          "type": "uint256"
        }
      ],
      "name": "tokenURI",
      "outputs": [
        {
          "internalType": "string",
          "name": "",
          "type": "string"
        }
      ],
      "stateMutability": "view",
      "type": "function"
    },
    {
      "inputs": [],
      "name": "totalSupply",
      "outputs": [
        {
          "internalType": "uint256",
          "name": "",
          "type": "uint256"
        }
      ],
      "stateMutability": "view",
      "type": "function"
    },
    {
      "inputs": [
        {
          "internalType": "address",
          "name": "from",
          "type": "address"
        },
        {
          "internalType": "address",
          "name": "to",
          "type": "address"
        },
        {
          "internalType": "uint256",
          "name": "tokenId",
          "type": "uint256"
        }
      ],
      "name": "transferFrom",
      "outputs": [],
      "stateMutability": "nonpayable",
      "type": "function"
    },
    {
      "inputs": [
        {
          "internalType": "address",
          "name": "newOwner",
          "type": "address"
        }
      ],
      "name": "transferOwnership",
      "outputs": [],
      "stateMutability": "nonpayable",
      "type": "function"
    },
    {
      "inputs": [],
      "name": "unpause",
      "outputs": [],
      "stateMutability": "nonpayable",
      "type": "function"
    }
  ],
  "bytecode": "0x60806040523480156200001157600080fd5b506040518060400160405280600681526020017f547269636b7300000000000000000000000000000000000000000000000000008152506040518060400160405280600681526020017f545249434b53000000000000000000000000000000000000000000000000000081525081600090816200008f91906200042d565b508060019081620000a191906200042d565b5050506000600b60006101000a81548160ff021916908315150217905550620000df620000d3620000e560201b60201c565b620000ed60201b60201c565b62000514565b600033905090565b6000600b60019054906101000a900473ffffffffffffffffffffffffffffffffffffffff16905081600b60016101000a81548173ffffffffffffffffffffffffffffffffffffffff021916908373ffffffffffffffffffffffffffffffffffffffff1602179055508173ffffffffffffffffffffffffffffffffffffffff168173ffffffffffffffffffffffffffffffffffffffff167f8be0079c531659141344cd1fd0a4f28419497f9722a3daafe3b4186f6b6457e060405160405180910390a35050565b600081519050919050565b7f4e487b7100000000000000000000000000000000000000000000000000000000600052604160045260246000fd5b7f4e487b7100000000000000000000000000000000000000000000000000000000600052602260045260246000fd5b600060028204905060018216806200023557607f821691505b6020821081036200024b576200024a620001ed565b5b50919050565b60008190508160005260206000209050919050565b60006020601f8301049050919050565b600082821b905092915050565b600060088302620002b57fffffffffffffffffffffffffffffffffffffffffffffffffffffffffffffffff8262000276565b620002c1868362000276565b95508019841693508086168417925050509392505050565b6000819050919050565b6000819050919050565b60006200030e620003086200030284620002d9565b620002e3565b620002d9565b9050919050565b6000819050919050565b6200032a83620002ed565b62000342620003398262000315565b84845462000283565b825550505050565b600090565b620003596200034a565b620003668184846200031f565b505050565b5b818110156200038e57620003826000826200034f565b6001810190506200036c565b5050565b601f821115620003dd57620003a78162000251565b620003b28462000266565b81016020851015620003c2578190505b620003da620003d18562000266565b8301826200036b565b50505b505050565b600082821c905092915050565b60006200040260001984600802620003e2565b1980831691505092915050565b60006200041d8383620003ef565b9150826002028217905092915050565b6200043882620001b3565b67ffffffffffffffff811115620004545762000453620001be565b5b6200046082546200021c565b6200046d82828562000392565b600060209050601f831160018114620004a5576000841562000490578287015190505b6200049c85826200040f565b8655506200050c565b601f198416620004b58662000251565b60005b82811015620004df57848901518255600182019150602085019450602081019050620004b8565b86831015620004ff5784890151620004fb601f891682620003ef565b8355505b6001600288020188555050505b505050505050565b613a5080620005246000396000f3fe608060405234801561001057600080fd5b506004361061014d5760003560e01c80636352211e116100c3578063a22cb4651161007c578063a22cb4651461037a578063b88d4fde14610396578063c87b56dd146103b2578063d204c45e146103e2578063e985e9c5146103fe578063f2fde38b1461042e5761014d565b80636352211e146102ca57806370a08231146102fa578063715018a61461032a5780638456cb59146103345780638da5cb5b1461033e57806395d89b411461035c5761014d565b806323b872dd1161011557806323b872dd1461020a5780632f745c59146102265780633f4ba83a1461025657806342842e0e146102605780634f6ccce71461027c5780635c975abb146102ac5761014d565b806301ffc9a71461015257806306fdde0314610182578063081812fc146101a0578063095ea7b3146101d057806318160ddd146101ec575b600080fd5b61016c600480360381019061016791906124f2565b61044a565b604051610179919061253a565b60405180910390f35b61018a61045c565b60405161019791906125e5565b60405180910390f35b6101ba60048036038101906101b5919061263d565b6104ee565b6040516101c791906126ab565b60405180910390f35b6101ea60048036038101906101e591906126f2565b610534565b005b6101f461064b565b6040516102019190612741565b60405180910390f35b610224600480360381019061021f919061275c565b610658565b005b610240600480360381019061023b91906126f2565b6106b8565b60405161024d9190612741565b60405180910390f35b61025e61075d565b005b61027a6004803603810190610275919061275c565b61076f565b005b6102966004803603810190610291919061263d565b61078f565b6040516102a39190612741565b60405180910390f35b6102b4610800565b6040516102c1919061253a565b60405180910390f35b6102e460048036038101906102df919061263d565b610817565b6040516102f191906126ab565b60405180910390f35b610314600480360381019061030f91906127af565b61089d565b6040516103219190612741565b60405180910390f35b610332610954565b005b61033c610968565b005b61034661097a565b60405161035391906126ab565b60405180910390f35b6103646109a4565b60405161037191906125e5565b60405180910390f35b610394600480360381019061038f9190612808565b610a36565b005b6103b060048036038101906103ab919061297d565b610a4c565b005b6103cc60048036038101906103c7919061263d565b610aae565b6040516103d991906125e5565b60405180910390f35b6103fc60048036038101906103f79190612aa1565b610ac0565b005b61041860048036038101906104139190612afd565b610af9565b604051610425919061253a565b60405180910390f35b610448600480360381019061044391906127af565b610b8d565b005b600061045582610c10565b9050919050565b60606000805461046b90612b6c565b80601f016020809104026020016040519081016040528092919081815260200182805461049790612b6c565b80156104e45780601f106104b9576101008083540402835291602001916104e4565b820191906000526020600020905b8154815290600101906020018083116104c757829003601f168201915b5050505050905090565b60006104f982610c8a565b6004600083815260200190815260200160002060009054906101000a900473ffffffffffffffffffffffffffffffffffffffff169050919050565b600061053f82610817565b90508073ffffffffffffffffffffffffffffffffffffffff168373ffffffffffffffffffffffffffffffffffffffff16036105af576040517f08c379a00000000000000000000000000000000000000000000000000000000081526004016105a690612c0f565b60405180910390fd5b8073ffffffffffffffffffffffffffffffffffffffff166105ce610cd5565b73ffffffffffffffffffffffffffffffffffffffff1614806105fd57506105fc816105f7610cd5565b610af9565b5b61063c576040517f08c379a000000000000000000000000000000000000000000000000000000000815260040161063390612ca1565b60405180910390fd5b6106468383610cdd565b505050565b6000600880549050905090565b610669610663610cd5565b82610d96565b6106a8576040517f08c379a000000000000000000000000000000000000000000000000000000000815260040161069f90612d33565b60405180910390fd5b6106b3838383610e2b565b505050565b60006106c38361089d565b8210610704576040517f08c379a00000000000000000000000000000000000000000000000000000000081526004016106fb90612dc5565b60405180910390fd5b600660008473ffffffffffffffffffffffffffffffffffffffff1673ffffffffffffffffffffffffffffffffffffffff168152602001908152602001600020600083815260200190815260200160002054905092915050565b610765611124565b61076d6111a2565b565b61078a83838360405180602001604052806000815250610a4c565b505050565b600061079961064b565b82106107da576040517f08c379a00000000000000000000000000000000000000000000000000000000081526004016107d190612e57565b60405180910390fd5b600882815481106107ee576107ed612e77565b5b90600052602060002001549050919050565b6000600b60009054906101000a900460ff16905090565b60008061082383611205565b9050600073ffffffffffffffffffffffffffffffffffffffff168173ffffffffffffffffffffffffffffffffffffffff1603610894576040517f08c379a000000000000000000000000000000000000000000000000000000000815260040161088b90612ef2565b60405180910390fd5b80915050919050565b60008073ffffffffffffffffffffffffffffffffffffffff168273ffffffffffffffffffffffffffffffffffffffff160361090d576040517f08c379a000000000000000000000000000000000000000000000000000000000815260040161090490612f84565b60405180910390fd5b600360008373ffffffffffffffffffffffffffffffffffffffff1673ffffffffffffffffffffffffffffffffffffffff168152602001908152602001600020549050919050565b61095c611124565b6109666000611242565b565b610970611124565b610978611308565b565b6000600b60019054906101000a900473ffffffffffffffffffffffffffffffffffffffff16905090565b6060600180546109b390612b6c565b80601f01602080910402602001604051908101604052809291908181526020018280546109df90612b6c565b8015610a2c5780601f10610a0157610100808354040283529160200191610a2c565b820191906000526020600020905b815481529060010190602001808311610a0f57829003601f168201915b5050505050905090565b610a48610a41610cd5565b838361136b565b5050565b610a5d610a57610cd5565b83610d96565b610a9c576040517f08c379a0000000000000000000000000000000000000000000000000000000008152600401610a9390612d33565b60405180910390fd5b610aa8848484846114d7565b50505050565b6060610ab982611533565b9050919050565b610ac8611124565b6000610ad4600c611645565b9050610ae0600c611653565b610aea8382611669565b610af48183611687565b505050565b6000600560008473ffffffffffffffffffffffffffffffffffffffff1673ffffffffffffffffffffffffffffffffffffffff16815260200190815260200160002060008373ffffffffffffffffffffffffffffffffffffffff1673ffffffffffffffffffffffffffffffffffffffff16815260200190815260200160002060009054906101000a900460ff16905092915050565b610b95611124565b600073ffffffffffffffffffffffffffffffffffffffff168173ffffffffffffffffffffffffffffffffffffffff1603610c04576040517f08c379a0000000000000000000000000000000000000000000000000000000008152600401610bfb90613016565b60405180910390fd5b610c0d81611242565b50565b60007f780e9d63000000000000000000000000000000000000000000000000000000007bffffffffffffffffffffffffffffffffffffffffffffffffffffffff1916827bffffffffffffffffffffffffffffffffffffffffffffffffffffffff19161480610c835750610c82826116f4565b5b9050919050565b610c93816117d6565b610cd2576040517f08c379a0000000000000000000000000000000000000000000000000000000008152600401610cc990612ef2565b60405180910390fd5b50565b600033905090565b816004600083815260200190815260200160002060006101000a81548173ffffffffffffffffffffffffffffffffffffffff021916908373ffffffffffffffffffffffffffffffffffffffff160217905550808273ffffffffffffffffffffffffffffffffffffffff16610d5083610817565b73ffffffffffffffffffffffffffffffffffffffff167f8c5be1e5ebec7d5bd14f71427d1e84f3dd0314c0f7b2291e5b200ac8c7c3b92560405160405180910390a45050565b600080610da283610817565b90508073ffffffffffffffffffffffffffffffffffffffff168473ffffffffffffffffffffffffffffffffffffffff161480610de45750610de38185610af9565b5b80610e2257508373ffffffffffffffffffffffffffffffffffffffff16610e0a846104ee565b73ffffffffffffffffffffffffffffffffffffffff16145b91505092915050565b8273ffffffffffffffffffffffffffffffffffffffff16610e4b82610817565b73ffffffffffffffffffffffffffffffffffffffff1614610ea1576040517f08c379a0000000000000000000000000000000000000000000000000000000008152600401610e98906130a8565b60405180910390fd5b600073ffffffffffffffffffffffffffffffffffffffff168273ffffffffffffffffffffffffffffffffffffffff1603610f10576040517f08c379a0000000000000000000000000000000000000000000000000000000008152600401610f079061313a565b60405180910390fd5b610f1d8383836001611817565b8273ffffffffffffffffffffffffffffffffffffffff16610f3d82610817565b73ffffffffffffffffffffffffffffffffffffffff1614610f93576040517f08c379a0000000000000000000000000000000000000000000000000000000008152600401610f8a906130a8565b60405180910390fd5b6004600082815260200190815260200160002060006101000a81549073ffffffffffffffffffffffffffffffffffffffff02191690556001600360008573ffffffffffffffffffffffffffffffffffffffff1673ffffffffffffffffffffffffffffffffffffffff168152602001908152602001600020600082825403925050819055506001600360008473ffffffffffffffffffffffffffffffffffffffff1673ffffffffffffffffffffffffffffffffffffffff16815260200190815260200160002060008282540192505081905550816002600083815260200190815260200160002060006101000a81548173ffffffffffffffffffffffffffffffffffffffff021916908373ffffffffffffffffffffffffffffffffffffffff160217905550808273ffffffffffffffffffffffffffffffffffffffff168473ffffffffffffffffffffffffffffffffffffffff167fddf252ad1be2c89b69c2b068fc378daa952ba7f163c4a11628f55a4df523b3ef60405160405180910390a461111f8383836001611831565b505050565b61112c610cd5565b73ffffffffffffffffffffffffffffffffffffffff1661114a61097a565b73ffffffffffffffffffffffffffffffffffffffff16146111a0576040517f08c379a0000000000000000000000000000000000000000000000000000000008152600401611197906131a6565b60405180910390fd5b565b6111aa611837565b6000600b60006101000a81548160ff0219169083151502179055507f5db9ee0a495bf2e6ff9c91a7834c1ba4fdd244a5e8aa4e537bd38aeae4b073aa6111ee610cd5565b6040516111fb91906126ab565b60405180910390a1565b60006002600083815260200190815260200160002060009054906101000a900473ffffffffffffffffffffffffffffffffffffffff169050919050565b6000600b60019054906101000a900473ffffffffffffffffffffffffffffffffffffffff16905081600b60016101000a81548173ffffffffffffffffffffffffffffffffffffffff021916908373ffffffffffffffffffffffffffffffffffffffff1602179055508173ffffffffffffffffffffffffffffffffffffffff168173ffffffffffffffffffffffffffffffffffffffff167f8be0079c531659141344cd1fd0a4f28419497f9722a3daafe3b4186f6b6457e060405160405180910390a35050565b611310611880565b6001600b60006101000a81548160ff0219169083151502179055507f62e78cea01bee320cd4e420270b5ea74000d11b0c9f74754ebdbfc544b05a258611354610cd5565b60405161136191906126ab565b60405180910390a1565b8173ffffffffffffffffffffffffffffffffffffffff168373ffffffffffffffffffffffffffffffffffffffff16036113d9576040517f08c379a00000000000000000000000000000000000000000000000000000000081526004016113d090613212565b60405180910390fd5b80600560008573ffffffffffffffffffffffffffffffffffffffff1673ffffffffffffffffffffffffffffffffffffffff16815260200190815260200160002060008473ffffffffffffffffffffffffffffffffffffffff1673ffffffffffffffffffffffffffffffffffffffff16815260200190815260200160002060006101000a81548160ff0219169083151502179055508173ffffffffffffffffffffffffffffffffffffffff168373ffffffffffffffffffffffffffffffffffffffff167f17307eab39ab6107e8899845ad3d59bd9653f200f220920489ca2b5937696c31836040516114ca919061253a565b60405180910390a3505050565b6114e2848484610e2b565b6114ee848484846118ca565b61152d576040517f08c379a0000000000000000000000000000000000000000000000000000000008152600401611524906132a4565b60405180910390fd5b50505050565b606061153e82610c8a565b6000600a6000848152602001908152602001600020805461155e90612b6c565b80601f016020809104026020016040519081016040528092919081815260200182805461158a90612b6c565b80156115d75780601f106115ac576101008083540402835291602001916115d7565b820191906000526020600020905b8154815290600101906020018083116115ba57829003601f168201915b5050505050905060006115e8611a51565b905060008151036115fd578192505050611640565b60008251111561163257808260405160200161161a929190613300565b60405160208183030381529060405292505050611640565b61163b84611a8e565b925050505b919050565b600081600001549050919050565b6001816000016000828254019250508190555050565b611683828260405180602001604052806000815250611af6565b5050565b611690826117d6565b6116cf576040517f08c379a00000000000000000000000000000000000000000000000000000000081526004016116c690613396565b60405180910390fd5b80600a600084815260200190815260200160002090816116ef9190613562565b505050565b60007f80ac58cd000000000000000000000000000000000000000000000000000000007bffffffffffffffffffffffffffffffffffffffffffffffffffffffff1916827bffffffffffffffffffffffffffffffffffffffffffffffffffffffff191614806117bf57507f5b5e139f000000000000000000000000000000000000000000000000000000007bffffffffffffffffffffffffffffffffffffffffffffffffffffffff1916827bffffffffffffffffffffffffffffffffffffffffffffffffffffffff1916145b806117cf57506117ce82611b51565b5b9050919050565b60008073ffffffffffffffffffffffffffffffffffffffff166117f883611205565b73ffffffffffffffffffffffffffffffffffffffff1614159050919050565b61181f611880565b61182b84848484611bbb565b50505050565b50505050565b61183f610800565b61187e576040517f08c379a000000000000000000000000000000000000000000000000000000000815260040161187590613680565b60405180910390fd5b565b611888610800565b156118c8576040517f08c379a00000000000000000000000000000000000000000000000000000000081526004016118bf906136ec565b60405180910390fd5b565b60006118eb8473ffffffffffffffffffffffffffffffffffffffff16611d19565b15611a44578373ffffffffffffffffffffffffffffffffffffffff1663150b7a02611914610cd5565b8786866040518563ffffffff1660e01b81526004016119369493929190613761565b6020604051808303816000875af192505050801561197257506040513d601f19601f8201168201806040525081019061196f91906137c2565b60015b6119f4573d80600081146119a2576040519150601f19603f3d011682016040523d82523d6000602084013e6119a7565b606091505b5060008151036119ec576040517f08c379a00000000000000000000000000000000000000000000000000000000081526004016119e3906132a4565b60405180910390fd5b805181602001fd5b63150b7a0260e01b7bffffffffffffffffffffffffffffffffffffffffffffffffffffffff1916817bffffffffffffffffffffffffffffffffffffffffffffffffffffffff191614915050611a49565b600190505b949350505050565b60606040518060400160405280600381526020017f7572690000000000000000000000000000000000000000000000000000000000815250905090565b6060611a9982610c8a565b6000611aa3611a51565b90506000815111611ac35760405180602001604052806000815250611aee565b80611acd84611d3c565b604051602001611ade929190613300565b6040516020818303038152906040525b915050919050565b611b008383611e0a565b611b0d60008484846118ca565b611b4c576040517f08c379a0000000000000000000000000000000000000000000000000000000008152600401611b43906132a4565b60405180910390fd5b505050565b60007f01ffc9a7000000000000000000000000000000000000000000000000000000007bffffffffffffffffffffffffffffffffffffffffffffffffffffffff1916827bffffffffffffffffffffffffffffffffffffffffffffffffffffffff1916149050919050565b611bc784848484612027565b6001811115611c0b576040517f08c379a0000000000000000000000000000000000000000000000000000000008152600401611c0290613861565b60405180910390fd5b6000829050600073ffffffffffffffffffffffffffffffffffffffff168573ffffffffffffffffffffffffffffffffffffffff1603611c5257611c4d8161202d565b611c91565b8373ffffffffffffffffffffffffffffffffffffffff168573ffffffffffffffffffffffffffffffffffffffff1614611c9057611c8f8582612076565b5b5b600073ffffffffffffffffffffffffffffffffffffffff168473ffffffffffffffffffffffffffffffffffffffff1603611cd357611cce816121e3565b611d12565b8473ffffffffffffffffffffffffffffffffffffffff168473ffffffffffffffffffffffffffffffffffffffff1614611d1157611d1084826122b4565b5b5b5050505050565b6000808273ffffffffffffffffffffffffffffffffffffffff163b119050919050565b606060006001611d4b84612333565b01905060008167ffffffffffffffff811115611d6a57611d69612852565b5b6040519080825280601f01601f191660200182016040528015611d9c5781602001600182028036833780820191505090505b509050600082602001820190505b600115611dff578080600190039150507f3031323334353637383961626364656600000000000000000000000000000000600a86061a8153600a8581611df357611df2613881565b5b04945060008503611daa575b819350505050919050565b600073ffffffffffffffffffffffffffffffffffffffff168273ffffffffffffffffffffffffffffffffffffffff1603611e79576040517f08c379a0000000000000000000000000000000000000000000000000000000008152600401611e70906138fc565b60405180910390fd5b611e82816117d6565b15611ec2576040517f08c379a0000000000000000000000000000000000000000000000000000000008152600401611eb990613968565b60405180910390fd5b611ed0600083836001611817565b611ed9816117d6565b15611f19576040517f08c379a0000000000000000000000000000000000000000000000000000000008152600401611f1090613968565b60405180910390fd5b6001600360008473ffffffffffffffffffffffffffffffffffffffff1673ffffffffffffffffffffffffffffffffffffffff16815260200190815260200160002060008282540192505081905550816002600083815260200190815260200160002060006101000a81548173ffffffffffffffffffffffffffffffffffffffff021916908373ffffffffffffffffffffffffffffffffffffffff160217905550808273ffffffffffffffffffffffffffffffffffffffff16600073ffffffffffffffffffffffffffffffffffffffff167fddf252ad1be2c89b69c2b068fc378daa952ba7f163c4a11628f55a4df523b3ef60405160405180910390a4612023600083836001611831565b5050565b50505050565b6008805490506009600083815260200190815260200160002081905550600881908060018154018082558091505060019003906000526020600020016000909190919091505550565b600060016120838461089d565b61208d91906139b7565b9050600060076000848152602001908152602001600020549050818114612172576000600660008673ffffffffffffffffffffffffffffffffffffffff1673ffffffffffffffffffffffffffffffffffffffff168152602001908152602001600020600084815260200190815260200160002054905080600660008773ffffffffffffffffffffffffffffffffffffffff1673ffffffffffffffffffffffffffffffffffffffff168152602001908152602001600020600084815260200190815260200160002081905550816007600083815260200190815260200160002081905550505b6007600084815260200190815260200160002060009055600660008573ffffffffffffffffffffffffffffffffffffffff1673ffffffffffffffffffffffffffffffffffffffff16815260200190815260200160002060008381526020019081526020016000206000905550505050565b600060016008805490506121f791906139b7565b905060006009600084815260200190815260200160002054905060006008838154811061222757612226612e77565b5b90600052602060002001549050806008838154811061224957612248612e77565b5b906000526020600020018190555081600960008381526020019081526020016000208190555060096000858152602001908152602001600020600090556008805480612298576122976139eb565b5b6001900381819060005260206000200160009055905550505050565b60006122bf8361089d565b905081600660008573ffffffffffffffffffffffffffffffffffffffff1673ffffffffffffffffffffffffffffffffffffffff168152602001908152602001600020600083815260200190815260200160002081905550806007600084815260200190815260200160002081905550505050565b600080600090507a184f03e93ff9f4daa797ed6e38ed64bf6a1f0100000000000000008310612391577a184f03e93ff9f4daa797ed6e38ed64bf6a1f010000000000000000838161238757612386613881565b5b0492506040810190505b6d04ee2d6d415b85acef810000000083106123ce576d04ee2d6d415b85acef810000000083816123c4576123c3613881565b5b0492506020810190505b662386f26fc1000083106123fd57662386f26fc1000083816123f3576123f2613881565b5b0492506010810190505b6305f5e1008310612426576305f5e100838161241c5761241b613881565b5b0492506008810190505b612710831061244b57612710838161244157612440613881565b5b0492506004810190505b6064831061246e576064838161246457612463613881565b5b0492506002810190505b600a831061247d576001810190505b80915050919050565b6000604051905090565b600080fd5b600080fd5b60007fffffffff0000000000000000000000000000000000000000000000000000000082169050919050565b6124cf8161249a565b81146124da57600080fd5b50565b6000813590506124ec816124c6565b92915050565b60006020828403121561250857612507612490565b5b6000612516848285016124dd565b91505092915050565b60008115159050919050565b6125348161251f565b82525050565b600060208201905061254f600083018461252b565b92915050565b600081519050919050565b600082825260208201905092915050565b60005b8381101561258f578082015181840152602081019050612574565b60008484015250505050565b6000601f19601f8301169050919050565b60006125b782612555565b6125c18185612560565b93506125d1818560208601612571565b6125da8161259b565b840191505092915050565b600060208201905081810360008301526125ff81846125ac565b905092915050565b6000819050919050565b61261a81612607565b811461262557600080fd5b50565b60008135905061263781612611565b92915050565b60006020828403121561265357612652612490565b5b600061266184828501612628565b91505092915050565b600073ffffffffffffffffffffffffffffffffffffffff82169050919050565b60006126958261266a565b9050919050565b6126a58161268a565b82525050565b60006020820190506126c0600083018461269c565b92915050565b6126cf8161268a565b81146126da57600080fd5b50565b6000813590506126ec816126c6565b92915050565b6000806040838503121561270957612708612490565b5b6000612717858286016126dd565b925050602061272885828601612628565b9150509250929050565b61273b81612607565b82525050565b60006020820190506127566000830184612732565b92915050565b60008060006060848603121561277557612774612490565b5b6000612783868287016126dd565b9350506020612794868287016126dd565b92505060406127a586828701612628565b9150509250925092565b6000602082840312156127c5576127c4612490565b5b60006127d3848285016126dd565b91505092915050565b6127e58161251f565b81146127f057600080fd5b50565b600081359050612802816127dc565b92915050565b6000806040838503121561281f5761281e612490565b5b600061282d858286016126dd565b925050602061283e858286016127f3565b9150509250929050565b600080fd5b600080fd5b7f4e487b7100000000000000000000000000000000000000000000000000000000600052604160045260246000fd5b61288a8261259b565b810181811067ffffffffffffffff821117156128a9576128a8612852565b5b80604052505050565b60006128bc612486565b90506128c88282612881565b919050565b600067ffffffffffffffff8211156128e8576128e7612852565b5b6128f18261259b565b9050602081019050919050565b82818337600083830152505050565b600061292061291b846128cd565b6128b2565b90508281526020810184848401111561293c5761293b61284d565b5b6129478482856128fe565b509392505050565b600082601f83011261296457612963612848565b5b813561297484826020860161290d565b91505092915050565b6000806000806080858703121561299757612996612490565b5b60006129a5878288016126dd565b94505060206129b6878288016126dd565b93505060406129c787828801612628565b925050606085013567ffffffffffffffff8111156129e8576129e7612495565b5b6129f48782880161294f565b91505092959194509250565b600067ffffffffffffffff821115612a1b57612a1a612852565b5b612a248261259b565b9050602081019050919050565b6000612a44612a3f84612a00565b6128b2565b905082815260208101848484011115612a6057612a5f61284d565b5b612a6b8482856128fe565b509392505050565b600082601f830112612a8857612a87612848565b5b8135612a98848260208601612a31565b91505092915050565b60008060408385031215612ab857612ab7612490565b5b6000612ac6858286016126dd565b925050602083013567ffffffffffffffff811115612ae757612ae6612495565b5b612af385828601612a73565b9150509250929050565b60008060408385031215612b1457612b13612490565b5b6000612b22858286016126dd565b9250506020612b33858286016126dd565b9150509250929050565b7f4e487b7100000000000000000000000000000000000000000000000000000000600052602260045260246000fd5b60006002820490506001821680612b8457607f821691505b602082108103612b9757612b96612b3d565b5b50919050565b7f4552433732313a20617070726f76616c20746f2063757272656e74206f776e6560008201527f7200000000000000000000000000000000000000000000000000000000000000602082015250565b6000612bf9602183612560565b9150612c0482612b9d565b604082019050919050565b60006020820190508181036000830152612c2881612bec565b9050919050565b7f4552433732313a20617070726f76652063616c6c6572206973206e6f7420746f60008201527f6b656e206f776e6572206f7220617070726f76656420666f7220616c6c000000602082015250565b6000612c8b603d83612560565b9150612c9682612c2f565b604082019050919050565b60006020820190508181036000830152612cba81612c7e565b9050919050565b7f4552433732313a2063616c6c6572206973206e6f7420746f6b656e206f776e6560008201527f72206f7220617070726f76656400000000000000000000000000000000000000602082015250565b6000612d1d602d83612560565b9150612d2882612cc1565b604082019050919050565b60006020820190508181036000830152612d4c81612d10565b9050919050565b7f455243373231456e756d657261626c653a206f776e657220696e646578206f7560008201527f74206f6620626f756e6473000000000000000000000000000000000000000000602082015250565b6000612daf602b83612560565b9150612dba82612d53565b604082019050919050565b60006020820190508181036000830152612dde81612da2565b9050919050565b7f455243373231456e756d657261626c653a20676c6f62616c20696e646578206f60008201527f7574206f6620626f756e64730000000000000000000000000000000000000000602082015250565b6000612e41602c83612560565b9150612e4c82612de5565b604082019050919050565b60006020820190508181036000830152612e7081612e34565b9050919050565b7f4e487b7100000000000000000000000000000000000000000000000000000000600052603260045260246000fd5b7f4552433732313a20696e76616c696420746f6b656e2049440000000000000000600082015250565b6000612edc601883612560565b9150612ee782612ea6565b602082019050919050565b60006020820190508181036000830152612f0b81612ecf565b9050919050565b7f4552433732313a2061646472657373207a65726f206973206e6f74206120766160008201527f6c6964206f776e65720000000000000000000000000000000000000000000000602082015250565b6000612f6e602983612560565b9150612f7982612f12565b604082019050919050565b60006020820190508181036000830152612f9d81612f61565b9050919050565b7f4f776e61626c653a206e6577206f776e657220697320746865207a65726f206160008201527f6464726573730000000000000000000000000000000000000000000000000000602082015250565b6000613000602683612560565b915061300b82612fa4565b604082019050919050565b6000602082019050818103600083015261302f81612ff3565b9050919050565b7f4552433732313a207472616e736665722066726f6d20696e636f72726563742060008201527f6f776e6572000000000000000000000000000000000000000000000000000000602082015250565b6000613092602583612560565b915061309d82613036565b604082019050919050565b600060208201905081810360008301526130c181613085565b9050919050565b7f4552433732313a207472616e7366657220746f20746865207a65726f2061646460008201527f7265737300000000000000000000000000000000000000000000000000000000602082015250565b6000613124602483612560565b915061312f826130c8565b604082019050919050565b6000602082019050818103600083015261315381613117565b9050919050565b7f4f776e61626c653a2063616c6c6572206973206e6f7420746865206f776e6572600082015250565b6000613190602083612560565b915061319b8261315a565b602082019050919050565b600060208201905081810360008301526131bf81613183565b9050919050565b7f4552433732313a20617070726f766520746f2063616c6c657200000000000000600082015250565b60006131fc601983612560565b9150613207826131c6565b602082019050919050565b6000602082019050818103600083015261322b816131ef565b9050919050565b7f4552433732313a207472616e7366657220746f206e6f6e20455243373231526560008201527f63656976657220696d706c656d656e7465720000000000000000000000000000602082015250565b600061328e603283612560565b915061329982613232565b604082019050919050565b600060208201905081810360008301526132bd81613281565b9050919050565b600081905092915050565b60006132da82612555565b6132e481856132c4565b93506132f4818560208601612571565b80840191505092915050565b600061330c82856132cf565b915061331882846132cf565b91508190509392505050565b7f45524337323155524953746f726167653a2055524920736574206f66206e6f6e60008201527f6578697374656e7420746f6b656e000000000000000000000000000000000000602082015250565b6000613380602e83612560565b915061338b82613324565b604082019050919050565b600060208201905081810360008301526133af81613373565b9050919050565b60008190508160005260206000209050919050565b60006020601f8301049050919050565b600082821b905092915050565b6000600883026134187fffffffffffffffffffffffffffffffffffffffffffffffffffffffffffffffff826133db565b61342286836133db565b95508019841693508086168417925050509392505050565b6000819050919050565b600061345f61345a61345584612607565b61343a565b612607565b9050919050565b6000819050919050565b61347983613444565b61348d61348582613466565b8484546133e8565b825550505050565b600090565b6134a2613495565b6134ad818484613470565b505050565b5b818110156134d1576134c660008261349a565b6001810190506134b3565b5050565b601f821115613516576134e7816133b6565b6134f0846133cb565b810160208510156134ff578190505b61351361350b856133cb565b8301826134b2565b50505b505050565b600082821c905092915050565b60006135396000198460080261351b565b1980831691505092915050565b60006135528383613528565b9150826002028217905092915050565b61356b82612555565b67ffffffffffffffff81111561358457613583612852565b5b61358e8254612b6c565b6135998282856134d5565b600060209050601f8311600181146135cc57600084156135ba578287015190505b6135c48582613546565b86555061362c565b601f1984166135da866133b6565b60005b82811015613602578489015182556001820191506020850194506020810190506135dd565b8683101561361f578489015161361b601f891682613528565b8355505b6001600288020188555050505b505050505050565b7f5061757361626c653a206e6f7420706175736564000000000000000000000000600082015250565b600061366a601483612560565b915061367582613634565b602082019050919050565b600060208201905081810360008301526136998161365d565b9050919050565b7f5061757361626c653a2070617573656400000000000000000000000000000000600082015250565b60006136d6601083612560565b91506136e1826136a0565b602082019050919050565b60006020820190508181036000830152613705816136c9565b9050919050565b600081519050919050565b600082825260208201905092915050565b60006137338261370c565b61373d8185613717565b935061374d818560208601612571565b6137568161259b565b840191505092915050565b6000608082019050613776600083018761269c565b613783602083018661269c565b6137906040830185612732565b81810360608301526137a28184613728565b905095945050505050565b6000815190506137bc816124c6565b92915050565b6000602082840312156137d8576137d7612490565b5b60006137e6848285016137ad565b91505092915050565b7f455243373231456e756d657261626c653a20636f6e736563757469766520747260008201527f616e7366657273206e6f7420737570706f727465640000000000000000000000602082015250565b600061384b603583612560565b9150613856826137ef565b604082019050919050565b6000602082019050818103600083015261387a8161383e565b9050919050565b7f4e487b7100000000000000000000000000000000000000000000000000000000600052601260045260246000fd5b7f4552433732313a206d696e7420746f20746865207a65726f2061646472657373600082015250565b60006138e6602083612560565b91506138f1826138b0565b602082019050919050565b60006020820190508181036000830152613915816138d9565b9050919050565b7f4552433732313a20746f6b656e20616c7265616479206d696e74656400000000600082015250565b6000613952601c83612560565b915061395d8261391c565b602082019050919050565b6000602082019050818103600083015261398181613945565b9050919050565b7f4e487b7100000000000000000000000000000000000000000000000000000000600052601160045260246000fd5b60006139c282612607565b91506139cd83612607565b92508282039050818111156139e5576139e4613988565b5b92915050565b7f4e487b7100000000000000000000000000000000000000000000000000000000600052603160045260246000fdfea2646970667358221220c1a97d570828a7fc3a96e46334d776ed8a4cde96f0e167aec56cac644b20927264736f6c63430008120033",
  "linkReferences": {},
  "deployedLinkReferences": {}
}