{
  "_format": "hh-sol-artifact-1",
  "contractName": "Tricks",
  "sourceName": "contracts/tricks.sol",
  "abi": [
    {
      "inputs": [
        {
          "internalType": "string",
          "name": "_name",
          "type": "string"
        },
        {
          "internalType": "string",
          "name": "_symbol",
          "type": "string"
        },
        {
          "internalType": "string",
          "name": "_baseURI",
          "type": "string"
        }
      ],
      "stateMutability": "nonpayable",
      "type": "constructor"
    },
    {
      "anonymous": false,
      "inputs": [
        {
          "indexed": true,
          "internalType": "address",
          "name": "owner",
          "type": "address"
        },
        {
          "indexed": true,
          "internalType": "address",
          "name": "approved",
          "type": "address"
        },
        {
          "indexed": true,
          "internalType": "uint256",
          "name": "tokenId",
          "type": "uint256"
        }
      ],
      "name": "Approval",
      "type": "event"
    },
    {
      "anonymous": false,
      "inputs": [
        {
          "indexed": true,
          "internalType": "address",
          "name": "owner",
          "type": "address"
        },
        {
          "indexed": true,
          "internalType": "address",
          "name": "operator",
          "type": "address"
        },
        {
          "indexed": false,
          "internalType": "bool",
          "name": "approved",
          "type": "bool"
        }
      ],
      "name": "ApprovalForAll",
      "type": "event"
    },
    {
      "anonymous": false,
      "inputs": [
        {
          "indexed": true,
          "internalType": "address",
          "name": "previousOwner",
          "type": "address"
        },
        {
          "indexed": true,
          "internalType": "address",
          "name": "newOwner",
          "type": "address"
        }
      ],
      "name": "OwnershipTransferred",
      "type": "event"
    },
    {
      "anonymous": false,
      "inputs": [
        {
          "indexed": true,
          "internalType": "address",
          "name": "from",
          "type": "address"
        },
        {
          "indexed": true,
          "internalType": "address",
          "name": "to",
          "type": "address"
        },
        {
          "indexed": true,
          "internalType": "uint256",
          "name": "tokenId",
          "type": "uint256"
        }
      ],
      "name": "Transfer",
      "type": "event"
    },
    {
      "inputs": [
        {
          "internalType": "address",
          "name": "_to",
          "type": "address"
        },
        {
          "internalType": "string",
          "name": "_NFTURI",
          "type": "string"
        }
      ],
      "name": "NFTMint2",
      "outputs": [],
      "stateMutability": "payable",
      "type": "function"
    },
    {
      "inputs": [
        {
          "internalType": "address",
          "name": "to",
          "type": "address"
        },
        {
          "internalType": "uint256",
          "name": "tokenId",
          "type": "uint256"
        }
      ],
      "name": "approve",
      "outputs": [],
      "stateMutability": "nonpayable",
      "type": "function"
    },
    {
      "inputs": [
        {
          "internalType": "uint256",
          "name": "",
          "type": "uint256"
        },
        {
          "internalType": "uint256",
          "name": "",
          "type": "uint256"
        }
      ],
      "name": "attributes",
      "outputs": [
        {
          "internalType": "uint256",
          "name": "",
          "type": "uint256"
        }
      ],
      "stateMutability": "view",
      "type": "function"
    },
    {
      "inputs": [
        {
          "internalType": "address",
          "name": "owner",
          "type": "address"
        }
      ],
      "name": "balanceOf",
      "outputs": [
        {
          "internalType": "uint256",
          "name": "",
          "type": "uint256"
        }
      ],
      "stateMutability": "view",
      "type": "function"
    },
    {
      "inputs": [],
      "name": "baseURI",
      "outputs": [
        {
          "internalType": "string",
          "name": "",
          "type": "string"
        }
      ],
      "stateMutability": "view",
      "type": "function"
    },
    {
      "inputs": [
        {
          "internalType": "uint256",
          "name": "priceEur",
          "type": "uint256"
        }
      ],
      "name": "convertEurToEth",
      "outputs": [
        {
          "internalType": "uint256",
          "name": "",
          "type": "uint256"
        }
      ],
      "stateMutability": "view",
      "type": "function"
    },
    {
      "inputs": [
        {
          "internalType": "uint256",
          "name": "tokenId",
          "type": "uint256"
        }
      ],
      "name": "getApproved",
      "outputs": [
        {
          "internalType": "address",
          "name": "",
          "type": "address"
        }
      ],
      "stateMutability": "view",
      "type": "function"
    },
    {
      "inputs": [],
      "name": "getLatestPriceETHUSD",
      "outputs": [
        {
          "internalType": "int256",
          "name": "",
          "type": "int256"
        }
      ],
      "stateMutability": "view",
      "type": "function"
    },
    {
      "inputs": [],
      "name": "getLatestPriceEURUSD",
      "outputs": [
        {
          "internalType": "int256",
          "name": "",
          "type": "int256"
        }
      ],
      "stateMutability": "view",
      "type": "function"
    },
    {
      "inputs": [
        {
          "internalType": "string",
          "name": "_tokenURI",
          "type": "string"
        }
      ],
      "name": "getTokenIdByURI",
      "outputs": [
        {
          "internalType": "uint256",
          "name": "",
          "type": "uint256"
        }
      ],
      "stateMutability": "view",
      "type": "function"
    },
    {
      "inputs": [
        {
          "internalType": "address",
          "name": "owner",
          "type": "address"
        },
        {
          "internalType": "address",
          "name": "operator",
          "type": "address"
        }
      ],
      "name": "isApprovedForAll",
      "outputs": [
        {
          "internalType": "bool",
          "name": "",
          "type": "bool"
        }
      ],
      "stateMutability": "view",
      "type": "function"
    },
    {
      "inputs": [],
      "name": "maxSupply",
      "outputs": [
        {
          "internalType": "uint256",
          "name": "",
          "type": "uint256"
        }
      ],
      "stateMutability": "view",
      "type": "function"
    },
    {
      "inputs": [],
      "name": "mintPrice",
      "outputs": [
        {
          "internalType": "uint256",
          "name": "",
          "type": "uint256"
        }
      ],
      "stateMutability": "view",
      "type": "function"
    },
    {
      "inputs": [],
      "name": "name",
      "outputs": [
        {
          "internalType": "string",
          "name": "",
          "type": "string"
        }
      ],
      "stateMutability": "view",
      "type": "function"
    },
    {
      "inputs": [],
      "name": "owner",
      "outputs": [
        {
          "internalType": "address",
          "name": "",
          "type": "address"
        }
      ],
      "stateMutability": "view",
      "type": "function"
    },
    {
      "inputs": [
        {
          "internalType": "uint256",
          "name": "tokenId",
          "type": "uint256"
        }
      ],
      "name": "ownerOf",
      "outputs": [
        {
          "internalType": "address",
          "name": "",
          "type": "address"
        }
      ],
      "stateMutability": "view",
      "type": "function"
    },
    {
      "inputs": [
        {
          "internalType": "uint256",
          "name": "",
          "type": "uint256"
        }
      ],
      "name": "owners",
      "outputs": [
        {
          "internalType": "address",
          "name": "",
          "type": "address"
        }
      ],
      "stateMutability": "view",
      "type": "function"
    },
    {
      "inputs": [],
      "name": "pause",
      "outputs": [],
      "stateMutability": "nonpayable",
      "type": "function"
    },
    {
      "inputs": [
        {
          "internalType": "uint256",
          "name": "",
          "type": "uint256"
        },
        {
          "internalType": "uint256",
          "name": "",
          "type": "uint256"
        }
      ],
      "name": "privileges",
      "outputs": [
        {
          "internalType": "uint256",
          "name": "",
          "type": "uint256"
        }
      ],
      "stateMutability": "view",
      "type": "function"
    },
    {
      "inputs": [],
      "name": "renounceOwnership",
      "outputs": [],
      "stateMutability": "nonpayable",
      "type": "function"
    },
    {
      "inputs": [
        {
          "internalType": "address",
          "name": "from",
          "type": "address"
        },
        {
          "internalType": "address",
          "name": "to",
          "type": "address"
        },
        {
          "internalType": "uint256",
          "name": "tokenId",
          "type": "uint256"
        }
      ],
      "name": "safeTransferFrom",
      "outputs": [],
      "stateMutability": "nonpayable",
      "type": "function"
    },
    {
      "inputs": [
        {
          "internalType": "address",
          "name": "from",
          "type": "address"
        },
        {
          "internalType": "address",
          "name": "to",
          "type": "address"
        },
        {
          "internalType": "uint256",
          "name": "tokenId",
          "type": "uint256"
        },
        {
          "internalType": "bytes",
          "name": "data",
          "type": "bytes"
        }
      ],
      "name": "safeTransferFrom",
      "outputs": [],
      "stateMutability": "nonpayable",
      "type": "function"
    },
    {
      "inputs": [],
      "name": "serverAddress",
      "outputs": [
        {
          "internalType": "address",
          "name": "",
          "type": "address"
        }
      ],
      "stateMutability": "view",
      "type": "function"
    },
    {
      "inputs": [
        {
          "internalType": "address",
          "name": "operator",
          "type": "address"
        },
        {
          "internalType": "bool",
          "name": "approved",
          "type": "bool"
        }
      ],
      "name": "setApprovalForAll",
      "outputs": [],
      "stateMutability": "nonpayable",
      "type": "function"
    },
    {
      "inputs": [
        {
          "internalType": "string",
          "name": "_newBaseURI",
          "type": "string"
        }
      ],
      "name": "setBaseURI",
      "outputs": [],
      "stateMutability": "nonpayable",
      "type": "function"
    },
    {
      "inputs": [
        {
          "internalType": "bytes4",
          "name": "interfaceId",
          "type": "bytes4"
        }
      ],
      "name": "supportsInterface",
      "outputs": [
        {
          "internalType": "bool",
          "name": "",
          "type": "bool"
        }
      ],
      "stateMutability": "view",
      "type": "function"
    },
    {
      "inputs": [],
      "name": "symbol",
      "outputs": [
        {
          "internalType": "string",
          "name": "",
          "type": "string"
        }
      ],
      "stateMutability": "view",
      "type": "function"
    },
    {
      "inputs": [
        {
          "internalType": "uint256",
          "name": "index",
          "type": "uint256"
        }
      ],
      "name": "tokenByIndex",
      "outputs": [
        {
          "internalType": "uint256",
          "name": "",
          "type": "uint256"
        }
      ],
      "stateMutability": "view",
      "type": "function"
    },
    {
      "inputs": [
        {
          "internalType": "address",
          "name": "owner",
          "type": "address"
        },
        {
          "internalType": "uint256",
          "name": "index",
          "type": "uint256"
        }
      ],
      "name": "tokenOfOwnerByIndex",
      "outputs": [
        {
          "internalType": "uint256",
          "name": "",
          "type": "uint256"
        }
      ],
      "stateMutability": "view",
      "type": "function"
    },
    {
      "inputs": [
        {
          "internalType": "uint256",
          "name": "tokenId",
          "type": "uint256"
        }
      ],
      "name": "tokenURI",
      "outputs": [
        {
          "internalType": "string",
          "name": "",
          "type": "string"
        }
      ],
      "stateMutability": "view",
      "type": "function"
    },
    {
      "inputs": [],
      "name": "totalSupply",
      "outputs": [
        {
          "internalType": "uint256",
          "name": "",
          "type": "uint256"
        }
      ],
      "stateMutability": "view",
      "type": "function"
    },
    {
      "inputs": [
        {
          "internalType": "address",
          "name": "from",
          "type": "address"
        },
        {
          "internalType": "address",
          "name": "to",
          "type": "address"
        },
        {
          "internalType": "uint256",
          "name": "tokenId",
          "type": "uint256"
        }
      ],
      "name": "transferFrom",
      "outputs": [],
      "stateMutability": "nonpayable",
      "type": "function"
    },
    {
      "inputs": [
        {
          "internalType": "address",
          "name": "newOwner",
          "type": "address"
        }
      ],
      "name": "transferOwnership",
      "outputs": [],
      "stateMutability": "nonpayable",
      "type": "function"
    },
    {
      "inputs": [],
      "name": "unpause",
      "outputs": [],
      "stateMutability": "nonpayable",
      "type": "function"
    }
  ],
  "bytecode": "0x6080604052610186600e5560326012556000601360006101000a81548160ff0219169083151502179055503480156200003757600080fd5b5060405162004dc538038062004dc583398181016040528101906200005d919062000514565b6040518060400160405280600b81526020017f4c657352656d70617274730000000000000000000000000000000000000000008152506040518060400160405280600481526020017f54524b53000000000000000000000000000000000000000000000000000000008152508160009081620000da919062000818565b508060019081620000ec919062000818565b5050506200010f62000103620001d360201b60201c565b620001db60201b60201c565b6200012081620002a160201b60201c565b735f4ec3df9cbd43714fe2740f5e3616155c5b8419601360016101000a81548173ffffffffffffffffffffffffffffffffffffffff021916908373ffffffffffffffffffffffffffffffffffffffff16021790555073b49f677943bc038e9857d61e7d053caa2c1734c1601460006101000a81548173ffffffffffffffffffffffffffffffffffffffff021916908373ffffffffffffffffffffffffffffffffffffffff16021790555050505062000982565b600033905090565b6000600a60009054906101000a900473ffffffffffffffffffffffffffffffffffffffff16905081600a60006101000a81548173ffffffffffffffffffffffffffffffffffffffff021916908373ffffffffffffffffffffffffffffffffffffffff1602179055508173ffffffffffffffffffffffffffffffffffffffff168173ffffffffffffffffffffffffffffffffffffffff167f8be0079c531659141344cd1fd0a4f28419497f9722a3daafe3b4186f6b6457e060405160405180910390a35050565b620002b1620002c660201b60201c565b80600c9081620002c2919062000818565b5050565b620002d6620001d360201b60201c565b73ffffffffffffffffffffffffffffffffffffffff16620002fc6200035760201b60201c565b73ffffffffffffffffffffffffffffffffffffffff161462000355576040517f08c379a00000000000000000000000000000000000000000000000000000000081526004016200034c9062000960565b60405180910390fd5b565b6000600a60009054906101000a900473ffffffffffffffffffffffffffffffffffffffff16905090565b6000604051905090565b600080fd5b600080fd5b600080fd5b600080fd5b6000601f19601f8301169050919050565b7f4e487b7100000000000000000000000000000000000000000000000000000000600052604160045260246000fd5b620003ea826200039f565b810181811067ffffffffffffffff821117156200040c576200040b620003b0565b5b80604052505050565b60006200042162000381565b90506200042f8282620003df565b919050565b600067ffffffffffffffff821115620004525762000451620003b0565b5b6200045d826200039f565b9050602081019050919050565b60005b838110156200048a5780820151818401526020810190506200046d565b60008484015250505050565b6000620004ad620004a78462000434565b62000415565b905082815260208101848484011115620004cc57620004cb6200039a565b5b620004d98482856200046a565b509392505050565b600082601f830112620004f957620004f862000395565b5b81516200050b84826020860162000496565b91505092915050565b60008060006060848603121562000530576200052f6200038b565b5b600084015167ffffffffffffffff81111562000551576200055062000390565b5b6200055f86828701620004e1565b935050602084015167ffffffffffffffff81111562000583576200058262000390565b5b6200059186828701620004e1565b925050604084015167ffffffffffffffff811115620005b557620005b462000390565b5b620005c386828701620004e1565b9150509250925092565b600081519050919050565b7f4e487b7100000000000000000000000000000000000000000000000000000000600052602260045260246000fd5b600060028204905060018216806200062057607f821691505b602082108103620006365762000635620005d8565b5b50919050565b60008190508160005260206000209050919050565b60006020601f8301049050919050565b600082821b905092915050565b600060088302620006a07fffffffffffffffffffffffffffffffffffffffffffffffffffffffffffffffff8262000661565b620006ac868362000661565b95508019841693508086168417925050509392505050565b6000819050919050565b6000819050919050565b6000620006f9620006f3620006ed84620006c4565b620006ce565b620006c4565b9050919050565b6000819050919050565b6200071583620006d8565b6200072d620007248262000700565b8484546200066e565b825550505050565b600090565b6200074462000735565b620007518184846200070a565b505050565b5b8181101562000779576200076d6000826200073a565b60018101905062000757565b5050565b601f821115620007c85762000792816200063c565b6200079d8462000651565b81016020851015620007ad578190505b620007c5620007bc8562000651565b83018262000756565b50505b505050565b600082821c905092915050565b6000620007ed60001984600802620007cd565b1980831691505092915050565b6000620008088383620007da565b9150826002028217905092915050565b6200082382620005cd565b67ffffffffffffffff8111156200083f576200083e620003b0565b5b6200084b825462000607565b620008588282856200077d565b600060209050601f8311600181146200089057600084156200087b578287015190505b620008878582620007fa565b865550620008f7565b601f198416620008a0866200063c565b60005b82811015620008ca57848901518255600182019150602085019450602081019050620008a3565b86831015620008ea5784890151620008e6601f891682620007da565b8355505b6001600288020188555050505b505050505050565b600082825260208201905092915050565b7f4f776e61626c653a2063616c6c6572206973206e6f7420746865206f776e6572600082015250565b600062000948602083620008ff565b9150620009558262000910565b602082019050919050565b600060208201905081810360008301526200097b8162000939565b9050919050565b61443380620009926000396000f3fe6080604052600436106101f95760003560e01c80636817c76c1161010d578063a22cb465116100a0578063ce2cfcff1161006f578063ce2cfcff1461074c578063d5abeb0114610789578063db420fe3146107b4578063e985e9c5146107df578063f2fde38b1461081c576101f9565b8063a22cb465146106a1578063b21198c4146106ca578063b88d4fde146106e6578063c87b56dd1461070f576101f9565b80638456cb59116100dc5780638456cb59146106095780638da5cb5b1461062057806395d89b411461064b57806395fe863c14610676576101f9565b80636817c76c1461055f5780636c0360eb1461058a57806370a08231146105b5578063715018a6146105f2576101f9565b806323b872dd1161019057806342842e0e1161015f57806342842e0e146104565780634f6ccce71461047f57806355f804b3146104bc5780635bceddcb146104e55780636352211e14610522576101f9565b806323b872dd146103ae57806326ff8daa146103d75780632f745c59146104025780633f4ba83a1461043f576101f9565b8063095ea7b3116101cc578063095ea7b3146102e0578063118f97081461030957806318160ddd14610346578063228b567914610371576101f9565b806301ffc9a7146101fe578063025e7c271461023b57806306fdde0314610278578063081812fc146102a3575b600080fd5b34801561020a57600080fd5b5061022560048036038101906102209190612a70565b610845565b6040516102329190612ab8565b60405180910390f35b34801561024757600080fd5b50610262600480360381019061025d9190612b09565b6108bf565b60405161026f9190612b77565b60405180910390f35b34801561028457600080fd5b5061028d6108f2565b60405161029a9190612c22565b60405180910390f35b3480156102af57600080fd5b506102ca60048036038101906102c59190612b09565b610984565b6040516102d79190612b77565b60405180910390f35b3480156102ec57600080fd5b5061030760048036038101906103029190612c70565b6109ca565b005b34801561031557600080fd5b50610330600480360381019061032b9190612de5565b610ae1565b60405161033d9190612e3d565b60405180910390f35b34801561035257600080fd5b5061035b610b6e565b6040516103689190612e3d565b60405180910390f35b34801561037d57600080fd5b5061039860048036038101906103939190612e58565b610b7b565b6040516103a59190612e3d565b60405180910390f35b3480156103ba57600080fd5b506103d560048036038101906103d09190612e98565b610bac565b005b3480156103e357600080fd5b506103ec610c0c565b6040516103f99190612f04565b60405180910390f35b34801561040e57600080fd5b5061042960048036038101906104249190612c70565b610cad565b6040516104369190612e3d565b60405180910390f35b34801561044b57600080fd5b50610454610d52565b005b34801561046257600080fd5b5061047d60048036038101906104789190612e98565b610d77565b005b34801561048b57600080fd5b506104a660048036038101906104a19190612b09565b610d97565b6040516104b39190612e3d565b60405180910390f35b3480156104c857600080fd5b506104e360048036038101906104de9190612de5565b610e08565b005b3480156104f157600080fd5b5061050c60048036038101906105079190612e58565b610e23565b6040516105199190612e3d565b60405180910390f35b34801561052e57600080fd5b5061054960048036038101906105449190612b09565b610e54565b6040516105569190612b77565b60405180910390f35b34801561056b57600080fd5b50610574610eda565b6040516105819190612e3d565b60405180910390f35b34801561059657600080fd5b5061059f610ee0565b6040516105ac9190612c22565b60405180910390f35b3480156105c157600080fd5b506105dc60048036038101906105d79190612f1f565b610f6e565b6040516105e99190612e3d565b60405180910390f35b3480156105fe57600080fd5b50610607611025565b005b34801561061557600080fd5b5061061e611039565b005b34801561062c57600080fd5b5061063561105e565b6040516106429190612b77565b60405180910390f35b34801561065757600080fd5b50610660611088565b60405161066d9190612c22565b60405180910390f35b34801561068257600080fd5b5061068b61111a565b6040516106989190612f04565b60405180910390f35b3480156106ad57600080fd5b506106c860048036038101906106c39190612f78565b6111bb565b005b6106e460048036038101906106df9190612fb8565b6111d1565b005b3480156106f257600080fd5b5061070d600480360381019061070891906130b5565b611284565b005b34801561071b57600080fd5b5061073660048036038101906107319190612b09565b6112e6565b6040516107439190612c22565b60405180910390f35b34801561075857600080fd5b50610773600480360381019061076e9190612b09565b611362565b6040516107809190612e3d565b60405180910390f35b34801561079557600080fd5b5061079e611427565b6040516107ab9190612e3d565b60405180910390f35b3480156107c057600080fd5b506107c961142d565b6040516107d69190612b77565b60405180910390f35b3480156107eb57600080fd5b5061080660048036038101906108019190613138565b611453565b6040516108139190612ab8565b60405180910390f35b34801561082857600080fd5b50610843600480360381019061083e9190612f1f565b6114e7565b005b60007f780e9d63000000000000000000000000000000000000000000000000000000007bffffffffffffffffffffffffffffffffffffffffffffffffffffffff1916827bffffffffffffffffffffffffffffffffffffffffffffffffffffffff191614806108b857506108b78261156a565b5b9050919050565b600f6020528060005260406000206000915054906101000a900473ffffffffffffffffffffffffffffffffffffffff1681565b606060008054610901906131a7565b80601f016020809104026020016040519081016040528092919081815260200182805461092d906131a7565b801561097a5780601f1061094f5761010080835404028352916020019161097a565b820191906000526020600020905b81548152906001019060200180831161095d57829003601f168201915b5050505050905090565b600061098f8261164c565b6004600083815260200190815260200160002060009054906101000a900473ffffffffffffffffffffffffffffffffffffffff169050919050565b60006109d582610e54565b90508073ffffffffffffffffffffffffffffffffffffffff168373ffffffffffffffffffffffffffffffffffffffff1603610a45576040517f08c379a0000000000000000000000000000000000000000000000000000000008152600401610a3c9061324a565b60405180910390fd5b8073ffffffffffffffffffffffffffffffffffffffff16610a64611697565b73ffffffffffffffffffffffffffffffffffffffff161480610a935750610a9281610a8d611697565b611453565b5b610ad2576040517f08c379a0000000000000000000000000000000000000000000000000000000008152600401610ac9906132dc565b60405180910390fd5b610adc838361169f565b505050565b600080610aec610b6e565b905060005b81811015610b2d57610b0b84610b06836112e6565b611758565b15610b1a578092505050610b69565b8080610b259061332b565b915050610af1565b506040517f08c379a0000000000000000000000000000000000000000000000000000000008152600401610b60906133e5565b60405180910390fd5b919050565b6000600880549050905090565b60106020528160005260406000208181548110610b9757600080fd5b90600052602060002001600091509150505481565b610bbd610bb7611697565b826117b1565b610bfc576040517f08c379a0000000000000000000000000000000000000000000000000000000008152600401610bf390613477565b60405180910390fd5b610c07838383611846565b505050565b600080601460009054906101000a900473ffffffffffffffffffffffffffffffffffffffff1673ffffffffffffffffffffffffffffffffffffffff1663feaf968c6040518163ffffffff1660e01b815260040160a060405180830381865afa158015610c7c573d6000803e3d6000fd5b505050506040513d601f19601f82011682018060405250810190610ca0919061351a565b5050509150508091505090565b6000610cb883610f6e565b8210610cf9576040517f08c379a0000000000000000000000000000000000000000000000000000000008152600401610cf090613607565b60405180910390fd5b600660008473ffffffffffffffffffffffffffffffffffffffff1673ffffffffffffffffffffffffffffffffffffffff168152602001908152602001600020600083815260200190815260200160002054905092915050565b610d5a611b3f565b6000601360006101000a81548160ff021916908315150217905550565b610d9283838360405180602001604052806000815250611284565b505050565b6000610da1610b6e565b8210610de2576040517f08c379a0000000000000000000000000000000000000000000000000000000008152600401610dd990613699565b60405180910390fd5b60088281548110610df657610df56136b9565b5b90600052602060002001549050919050565b610e10611b3f565b80600c9081610e1f9190613894565b5050565b60116020528160005260406000208181548110610e3f57600080fd5b90600052602060002001600091509150505481565b600080610e6083611bbd565b9050600073ffffffffffffffffffffffffffffffffffffffff168173ffffffffffffffffffffffffffffffffffffffff1603610ed1576040517f08c379a0000000000000000000000000000000000000000000000000000000008152600401610ec8906139b2565b60405180910390fd5b80915050919050565b600e5481565b600c8054610eed906131a7565b80601f0160208091040260200160405190810160405280929190818152602001828054610f19906131a7565b8015610f665780601f10610f3b57610100808354040283529160200191610f66565b820191906000526020600020905b815481529060010190602001808311610f4957829003601f168201915b505050505081565b60008073ffffffffffffffffffffffffffffffffffffffff168273ffffffffffffffffffffffffffffffffffffffff1603610fde576040517f08c379a0000000000000000000000000000000000000000000000000000000008152600401610fd590613a44565b60405180910390fd5b600360008373ffffffffffffffffffffffffffffffffffffffff1673ffffffffffffffffffffffffffffffffffffffff168152602001908152602001600020549050919050565b61102d611b3f565b6110376000611bfa565b565b611041611b3f565b6001601360006101000a81548160ff021916908315150217905550565b6000600a60009054906101000a900473ffffffffffffffffffffffffffffffffffffffff16905090565b606060018054611097906131a7565b80601f01602080910402602001604051908101604052809291908181526020018280546110c3906131a7565b80156111105780601f106110e557610100808354040283529160200191611110565b820191906000526020600020905b8154815290600101906020018083116110f357829003601f168201915b5050505050905090565b600080601360019054906101000a900473ffffffffffffffffffffffffffffffffffffffff1673ffffffffffffffffffffffffffffffffffffffff1663feaf968c6040518163ffffffff1660e01b815260040160a060405180830381865afa15801561118a573d6000803e3d6000fd5b505050506040513d601f19601f820116820180604052508101906111ae919061351a565b5050509150508091505090565b6111cd6111c6611697565b8383611cc0565b5050565b6111d9611b3f565b6000610186905060006111eb82611362565b905080341015611230576040517f08c379a000000000000000000000000000000000000000000000000000000000815260040161122790613ab0565b60405180910390fd5b601360009054906101000a900460ff161561124a57600080fd5b6000611254610b6e565b905060125481111561126557600080fd5b600061127085610ae1565b905061127c8682611e2c565b505050505050565b61129561128f611697565b836117b1565b6112d4576040517f08c379a00000000000000000000000000000000000000000000000000000000081526004016112cb90613477565b60405180910390fd5b6112e084848484611e4a565b50505050565b60606112f182611ea6565b611330576040517f08c379a000000000000000000000000000000000000000000000000000000000815260040161132790613b42565b60405180910390fd5b600c61133b83611ee7565b60405160200161134c929190613c6d565b6040516020818303038152906040529050919050565b60008061136d610c0c565b9050600061137961111a565b9050600082136113be576040517f08c379a00000000000000000000000000000000000000000000000000000000081526004016113b590613ce8565b60405180910390fd5b60008113611401576040517f08c379a00000000000000000000000000000000000000000000000000000000081526004016113f890613d54565b60405180910390fd5b60008183866114109190613d74565b61141a9190613de5565b9050809350505050919050565b60125481565b600d60009054906101000a900473ffffffffffffffffffffffffffffffffffffffff1681565b6000600560008473ffffffffffffffffffffffffffffffffffffffff1673ffffffffffffffffffffffffffffffffffffffff16815260200190815260200160002060008373ffffffffffffffffffffffffffffffffffffffff1673ffffffffffffffffffffffffffffffffffffffff16815260200190815260200160002060009054906101000a900460ff16905092915050565b6114ef611b3f565b600073ffffffffffffffffffffffffffffffffffffffff168173ffffffffffffffffffffffffffffffffffffffff160361155e576040517f08c379a000000000000000000000000000000000000000000000000000000000815260040161155590613e88565b60405180910390fd5b61156781611bfa565b50565b60007f80ac58cd000000000000000000000000000000000000000000000000000000007bffffffffffffffffffffffffffffffffffffffffffffffffffffffff1916827bffffffffffffffffffffffffffffffffffffffffffffffffffffffff1916148061163557507f5b5e139f000000000000000000000000000000000000000000000000000000007bffffffffffffffffffffffffffffffffffffffffffffffffffffffff1916827bffffffffffffffffffffffffffffffffffffffffffffffffffffffff1916145b80611645575061164482611fb5565b5b9050919050565b61165581611ea6565b611694576040517f08c379a000000000000000000000000000000000000000000000000000000000815260040161168b906139b2565b60405180910390fd5b50565b600033905090565b816004600083815260200190815260200160002060006101000a81548173ffffffffffffffffffffffffffffffffffffffff021916908373ffffffffffffffffffffffffffffffffffffffff160217905550808273ffffffffffffffffffffffffffffffffffffffff1661171283610e54565b73ffffffffffffffffffffffffffffffffffffffff167f8c5be1e5ebec7d5bd14f71427d1e84f3dd0314c0f7b2291e5b200ac8c7c3b92560405160405180910390a45050565b60008160405160200161176b9190613ea8565b60405160208183030381529060405280519060200120836040516020016117929190613ea8565b6040516020818303038152906040528051906020012014905092915050565b6000806117bd83610e54565b90508073ffffffffffffffffffffffffffffffffffffffff168473ffffffffffffffffffffffffffffffffffffffff1614806117ff57506117fe8185611453565b5b8061183d57508373ffffffffffffffffffffffffffffffffffffffff1661182584610984565b73ffffffffffffffffffffffffffffffffffffffff16145b91505092915050565b8273ffffffffffffffffffffffffffffffffffffffff1661186682610e54565b73ffffffffffffffffffffffffffffffffffffffff16146118bc576040517f08c379a00000000000000000000000000000000000000000000000000000000081526004016118b390613f31565b60405180910390fd5b600073ffffffffffffffffffffffffffffffffffffffff168273ffffffffffffffffffffffffffffffffffffffff160361192b576040517f08c379a000000000000000000000000000000000000000000000000000000000815260040161192290613fc3565b60405180910390fd5b611938838383600161201f565b8273ffffffffffffffffffffffffffffffffffffffff1661195882610e54565b73ffffffffffffffffffffffffffffffffffffffff16146119ae576040517f08c379a00000000000000000000000000000000000000000000000000000000081526004016119a590613f31565b60405180910390fd5b6004600082815260200190815260200160002060006101000a81549073ffffffffffffffffffffffffffffffffffffffff02191690556001600360008573ffffffffffffffffffffffffffffffffffffffff1673ffffffffffffffffffffffffffffffffffffffff168152602001908152602001600020600082825403925050819055506001600360008473ffffffffffffffffffffffffffffffffffffffff1673ffffffffffffffffffffffffffffffffffffffff16815260200190815260200160002060008282540192505081905550816002600083815260200190815260200160002060006101000a81548173ffffffffffffffffffffffffffffffffffffffff021916908373ffffffffffffffffffffffffffffffffffffffff160217905550808273ffffffffffffffffffffffffffffffffffffffff168473ffffffffffffffffffffffffffffffffffffffff167fddf252ad1be2c89b69c2b068fc378daa952ba7f163c4a11628f55a4df523b3ef60405160405180910390a4611b3a838383600161217d565b505050565b611b47611697565b73ffffffffffffffffffffffffffffffffffffffff16611b6561105e565b73ffffffffffffffffffffffffffffffffffffffff1614611bbb576040517f08c379a0000000000000000000000000000000000000000000000000000000008152600401611bb29061402f565b60405180910390fd5b565b60006002600083815260200190815260200160002060009054906101000a900473ffffffffffffffffffffffffffffffffffffffff169050919050565b6000600a60009054906101000a900473ffffffffffffffffffffffffffffffffffffffff16905081600a60006101000a81548173ffffffffffffffffffffffffffffffffffffffff021916908373ffffffffffffffffffffffffffffffffffffffff1602179055508173ffffffffffffffffffffffffffffffffffffffff168173ffffffffffffffffffffffffffffffffffffffff167f8be0079c531659141344cd1fd0a4f28419497f9722a3daafe3b4186f6b6457e060405160405180910390a35050565b8173ffffffffffffffffffffffffffffffffffffffff168373ffffffffffffffffffffffffffffffffffffffff1603611d2e576040517f08c379a0000000000000000000000000000000000000000000000000000000008152600401611d259061409b565b60405180910390fd5b80600560008573ffffffffffffffffffffffffffffffffffffffff1673ffffffffffffffffffffffffffffffffffffffff16815260200190815260200160002060008473ffffffffffffffffffffffffffffffffffffffff1673ffffffffffffffffffffffffffffffffffffffff16815260200190815260200160002060006101000a81548160ff0219169083151502179055508173ffffffffffffffffffffffffffffffffffffffff168373ffffffffffffffffffffffffffffffffffffffff167f17307eab39ab6107e8899845ad3d59bd9653f200f220920489ca2b5937696c3183604051611e1f9190612ab8565b60405180910390a3505050565b611e46828260405180602001604052806000815250612183565b5050565b611e55848484611846565b611e61848484846121de565b611ea0576040517f08c379a0000000000000000000000000000000000000000000000000000000008152600401611e979061412d565b60405180910390fd5b50505050565b60008073ffffffffffffffffffffffffffffffffffffffff16611ec883611bbd565b73ffffffffffffffffffffffffffffffffffffffff1614159050919050565b606060006001611ef684612365565b01905060008167ffffffffffffffff811115611f1557611f14612cba565b5b6040519080825280601f01601f191660200182016040528015611f475781602001600182028036833780820191505090505b509050600082602001820190505b600115611faa578080600190039150507f3031323334353637383961626364656600000000000000000000000000000000600a86061a8153600a8581611f9e57611f9d613db6565b5b04945060008503611f55575b819350505050919050565b60007f01ffc9a7000000000000000000000000000000000000000000000000000000007bffffffffffffffffffffffffffffffffffffffffffffffffffffffff1916827bffffffffffffffffffffffffffffffffffffffffffffffffffffffff1916149050919050565b61202b848484846124b8565b600181111561206f576040517f08c379a0000000000000000000000000000000000000000000000000000000008152600401612066906141bf565b60405180910390fd5b6000829050600073ffffffffffffffffffffffffffffffffffffffff168573ffffffffffffffffffffffffffffffffffffffff16036120b6576120b1816124be565b6120f5565b8373ffffffffffffffffffffffffffffffffffffffff168573ffffffffffffffffffffffffffffffffffffffff16146120f4576120f38582612507565b5b5b600073ffffffffffffffffffffffffffffffffffffffff168473ffffffffffffffffffffffffffffffffffffffff16036121375761213281612674565b612176565b8473ffffffffffffffffffffffffffffffffffffffff168473ffffffffffffffffffffffffffffffffffffffff1614612175576121748482612745565b5b5b5050505050565b50505050565b61218d83836127c4565b61219a60008484846121de565b6121d9576040517f08c379a00000000000000000000000000000000000000000000000000000000081526004016121d09061412d565b60405180910390fd5b505050565b60006121ff8473ffffffffffffffffffffffffffffffffffffffff166129e1565b15612358578373ffffffffffffffffffffffffffffffffffffffff1663150b7a02612228611697565b8786866040518563ffffffff1660e01b815260040161224a9493929190614234565b6020604051808303816000875af192505050801561228657506040513d601f19601f820116820180604052508101906122839190614295565b60015b612308573d80600081146122b6576040519150601f19603f3d011682016040523d82523d6000602084013e6122bb565b606091505b506000815103612300576040517f08c379a00000000000000000000000000000000000000000000000000000000081526004016122f79061412d565b60405180910390fd5b805181602001fd5b63150b7a0260e01b7bffffffffffffffffffffffffffffffffffffffffffffffffffffffff1916817bffffffffffffffffffffffffffffffffffffffffffffffffffffffff19161491505061235d565b600190505b949350505050565b600080600090507a184f03e93ff9f4daa797ed6e38ed64bf6a1f01000000000000000083106123c3577a184f03e93ff9f4daa797ed6e38ed64bf6a1f01000000000000000083816123b9576123b8613db6565b5b0492506040810190505b6d04ee2d6d415b85acef81000000008310612400576d04ee2d6d415b85acef810000000083816123f6576123f5613db6565b5b0492506020810190505b662386f26fc10000831061242f57662386f26fc10000838161242557612424613db6565b5b0492506010810190505b6305f5e1008310612458576305f5e100838161244e5761244d613db6565b5b0492506008810190505b612710831061247d57612710838161247357612472613db6565b5b0492506004810190505b606483106124a0576064838161249657612495613db6565b5b0492506002810190505b600a83106124af576001810190505b80915050919050565b50505050565b6008805490506009600083815260200190815260200160002081905550600881908060018154018082558091505060019003906000526020600020016000909190919091505550565b6000600161251484610f6e565b61251e91906142c2565b9050600060076000848152602001908152602001600020549050818114612603576000600660008673ffffffffffffffffffffffffffffffffffffffff1673ffffffffffffffffffffffffffffffffffffffff168152602001908152602001600020600084815260200190815260200160002054905080600660008773ffffffffffffffffffffffffffffffffffffffff1673ffffffffffffffffffffffffffffffffffffffff168152602001908152602001600020600084815260200190815260200160002081905550816007600083815260200190815260200160002081905550505b6007600084815260200190815260200160002060009055600660008573ffffffffffffffffffffffffffffffffffffffff1673ffffffffffffffffffffffffffffffffffffffff16815260200190815260200160002060008381526020019081526020016000206000905550505050565b6000600160088054905061268891906142c2565b90506000600960008481526020019081526020016000205490506000600883815481106126b8576126b76136b9565b5b9060005260206000200154905080600883815481106126da576126d96136b9565b5b906000526020600020018190555081600960008381526020019081526020016000208190555060096000858152602001908152602001600020600090556008805480612729576127286142f6565b5b6001900381819060005260206000200160009055905550505050565b600061275083610f6e565b905081600660008573ffffffffffffffffffffffffffffffffffffffff1673ffffffffffffffffffffffffffffffffffffffff168152602001908152602001600020600083815260200190815260200160002081905550806007600084815260200190815260200160002081905550505050565b600073ffffffffffffffffffffffffffffffffffffffff168273ffffffffffffffffffffffffffffffffffffffff1603612833576040517f08c379a000000000000000000000000000000000000000000000000000000000815260040161282a90614371565b60405180910390fd5b61283c81611ea6565b1561287c576040517f08c379a0000000000000000000000000000000000000000000000000000000008152600401612873906143dd565b60405180910390fd5b61288a60008383600161201f565b61289381611ea6565b156128d3576040517f08c379a00000000000000000000000000000000000000000000000000000000081526004016128ca906143dd565b60405180910390fd5b6001600360008473ffffffffffffffffffffffffffffffffffffffff1673ffffffffffffffffffffffffffffffffffffffff16815260200190815260200160002060008282540192505081905550816002600083815260200190815260200160002060006101000a81548173ffffffffffffffffffffffffffffffffffffffff021916908373ffffffffffffffffffffffffffffffffffffffff160217905550808273ffffffffffffffffffffffffffffffffffffffff16600073ffffffffffffffffffffffffffffffffffffffff167fddf252ad1be2c89b69c2b068fc378daa952ba7f163c4a11628f55a4df523b3ef60405160405180910390a46129dd60008383600161217d565b5050565b6000808273ffffffffffffffffffffffffffffffffffffffff163b119050919050565b6000604051905090565b600080fd5b600080fd5b60007fffffffff0000000000000000000000000000000000000000000000000000000082169050919050565b612a4d81612a18565b8114612a5857600080fd5b50565b600081359050612a6a81612a44565b92915050565b600060208284031215612a8657612a85612a0e565b5b6000612a9484828501612a5b565b91505092915050565b60008115159050919050565b612ab281612a9d565b82525050565b6000602082019050612acd6000830184612aa9565b92915050565b6000819050919050565b612ae681612ad3565b8114612af157600080fd5b50565b600081359050612b0381612add565b92915050565b600060208284031215612b1f57612b1e612a0e565b5b6000612b2d84828501612af4565b91505092915050565b600073ffffffffffffffffffffffffffffffffffffffff82169050919050565b6000612b6182612b36565b9050919050565b612b7181612b56565b82525050565b6000602082019050612b8c6000830184612b68565b92915050565b600081519050919050565b600082825260208201905092915050565b60005b83811015612bcc578082015181840152602081019050612bb1565b60008484015250505050565b6000601f19601f8301169050919050565b6000612bf482612b92565b612bfe8185612b9d565b9350612c0e818560208601612bae565b612c1781612bd8565b840191505092915050565b60006020820190508181036000830152612c3c8184612be9565b905092915050565b612c4d81612b56565b8114612c5857600080fd5b50565b600081359050612c6a81612c44565b92915050565b60008060408385031215612c8757612c86612a0e565b5b6000612c9585828601612c5b565b9250506020612ca685828601612af4565b9150509250929050565b600080fd5b600080fd5b7f4e487b7100000000000000000000000000000000000000000000000000000000600052604160045260246000fd5b612cf282612bd8565b810181811067ffffffffffffffff82111715612d1157612d10612cba565b5b80604052505050565b6000612d24612a04565b9050612d308282612ce9565b919050565b600067ffffffffffffffff821115612d5057612d4f612cba565b5b612d5982612bd8565b9050602081019050919050565b82818337600083830152505050565b6000612d88612d8384612d35565b612d1a565b905082815260208101848484011115612da457612da3612cb5565b5b612daf848285612d66565b509392505050565b600082601f830112612dcc57612dcb612cb0565b5b8135612ddc848260208601612d75565b91505092915050565b600060208284031215612dfb57612dfa612a0e565b5b600082013567ffffffffffffffff811115612e1957612e18612a13565b5b612e2584828501612db7565b91505092915050565b612e3781612ad3565b82525050565b6000602082019050612e526000830184612e2e565b92915050565b60008060408385031215612e6f57612e6e612a0e565b5b6000612e7d85828601612af4565b9250506020612e8e85828601612af4565b9150509250929050565b600080600060608486031215612eb157612eb0612a0e565b5b6000612ebf86828701612c5b565b9350506020612ed086828701612c5b565b9250506040612ee186828701612af4565b9150509250925092565b6000819050919050565b612efe81612eeb565b82525050565b6000602082019050612f196000830184612ef5565b92915050565b600060208284031215612f3557612f34612a0e565b5b6000612f4384828501612c5b565b91505092915050565b612f5581612a9d565b8114612f6057600080fd5b50565b600081359050612f7281612f4c565b92915050565b60008060408385031215612f8f57612f8e612a0e565b5b6000612f9d85828601612c5b565b9250506020612fae85828601612f63565b9150509250929050565b60008060408385031215612fcf57612fce612a0e565b5b6000612fdd85828601612c5b565b925050602083013567ffffffffffffffff811115612ffe57612ffd612a13565b5b61300a85828601612db7565b9150509250929050565b600067ffffffffffffffff82111561302f5761302e612cba565b5b61303882612bd8565b9050602081019050919050565b600061305861305384613014565b612d1a565b90508281526020810184848401111561307457613073612cb5565b5b61307f848285612d66565b509392505050565b600082601f83011261309c5761309b612cb0565b5b81356130ac848260208601613045565b91505092915050565b600080600080608085870312156130cf576130ce612a0e565b5b60006130dd87828801612c5b565b94505060206130ee87828801612c5b565b93505060406130ff87828801612af4565b925050606085013567ffffffffffffffff8111156131205761311f612a13565b5b61312c87828801613087565b91505092959194509250565b6000806040838503121561314f5761314e612a0e565b5b600061315d85828601612c5b565b925050602061316e85828601612c5b565b9150509250929050565b7f4e487b7100000000000000000000000000000000000000000000000000000000600052602260045260246000fd5b600060028204905060018216806131bf57607f821691505b6020821081036131d2576131d1613178565b5b50919050565b7f4552433732313a20617070726f76616c20746f2063757272656e74206f776e6560008201527f7200000000000000000000000000000000000000000000000000000000000000602082015250565b6000613234602183612b9d565b915061323f826131d8565b604082019050919050565b6000602082019050818103600083015261326381613227565b9050919050565b7f4552433732313a20617070726f76652063616c6c6572206973206e6f7420746f60008201527f6b656e206f776e6572206f7220617070726f76656420666f7220616c6c000000602082015250565b60006132c6603d83612b9d565b91506132d18261326a565b604082019050919050565b600060208201905081810360008301526132f5816132b9565b9050919050565b7f4e487b7100000000000000000000000000000000000000000000000000000000600052601160045260246000fd5b600061333682612ad3565b91507fffffffffffffffffffffffffffffffffffffffffffffffffffffffffffffffff8203613368576133676132fc565b5b600182019050919050565b7f4c6520746f6b656e206e276578697374652070617320706f7572206c2755524960008201527f20646f6e6e656520656e20706172616d65747265000000000000000000000000602082015250565b60006133cf603483612b9d565b91506133da82613373565b604082019050919050565b600060208201905081810360008301526133fe816133c2565b9050919050565b7f4552433732313a2063616c6c6572206973206e6f7420746f6b656e206f776e6560008201527f72206f7220617070726f76656400000000000000000000000000000000000000602082015250565b6000613461602d83612b9d565b915061346c82613405565b604082019050919050565b6000602082019050818103600083015261349081613454565b9050919050565b600069ffffffffffffffffffff82169050919050565b6134b681613497565b81146134c157600080fd5b50565b6000815190506134d3816134ad565b92915050565b6134e281612eeb565b81146134ed57600080fd5b50565b6000815190506134ff816134d9565b92915050565b60008151905061351481612add565b92915050565b600080600080600060a0868803121561353657613535612a0e565b5b6000613544888289016134c4565b9550506020613555888289016134f0565b945050604061356688828901613505565b935050606061357788828901613505565b9250506080613588888289016134c4565b9150509295509295909350565b7f455243373231456e756d657261626c653a206f776e657220696e646578206f7560008201527f74206f6620626f756e6473000000000000000000000000000000000000000000602082015250565b60006135f1602b83612b9d565b91506135fc82613595565b604082019050919050565b60006020820190508181036000830152613620816135e4565b9050919050565b7f455243373231456e756d657261626c653a20676c6f62616c20696e646578206f60008201527f7574206f6620626f756e64730000000000000000000000000000000000000000602082015250565b6000613683602c83612b9d565b915061368e82613627565b604082019050919050565b600060208201905081810360008301526136b281613676565b9050919050565b7f4e487b7100000000000000000000000000000000000000000000000000000000600052603260045260246000fd5b60008190508160005260206000209050919050565b60006020601f8301049050919050565b600082821b905092915050565b60006008830261374a7fffffffffffffffffffffffffffffffffffffffffffffffffffffffffffffffff8261370d565b613754868361370d565b95508019841693508086168417925050509392505050565b6000819050919050565b600061379161378c61378784612ad3565b61376c565b612ad3565b9050919050565b6000819050919050565b6137ab83613776565b6137bf6137b782613798565b84845461371a565b825550505050565b600090565b6137d46137c7565b6137df8184846137a2565b505050565b5b81811015613803576137f86000826137cc565b6001810190506137e5565b5050565b601f82111561384857613819816136e8565b613822846136fd565b81016020851015613831578190505b61384561383d856136fd565b8301826137e4565b50505b505050565b600082821c905092915050565b600061386b6000198460080261384d565b1980831691505092915050565b6000613884838361385a565b9150826002028217905092915050565b61389d82612b92565b67ffffffffffffffff8111156138b6576138b5612cba565b5b6138c082546131a7565b6138cb828285613807565b600060209050601f8311600181146138fe57600084156138ec578287015190505b6138f68582613878565b86555061395e565b601f19841661390c866136e8565b60005b828110156139345784890151825560018201915060208501945060208101905061390f565b86831015613951578489015161394d601f89168261385a565b8355505b6001600288020188555050505b505050505050565b7f4552433732313a20696e76616c696420746f6b656e2049440000000000000000600082015250565b600061399c601883612b9d565b91506139a782613966565b602082019050919050565b600060208201905081810360008301526139cb8161398f565b9050919050565b7f4552433732313a2061646472657373207a65726f206973206e6f74206120766160008201527f6c6964206f776e65720000000000000000000000000000000000000000000000602082015250565b6000613a2e602983612b9d565b9150613a39826139d2565b604082019050919050565b60006020820190508181036000830152613a5d81613a21565b9050919050565b7f496e73756666696369656e742066756e64730000000000000000000000000000600082015250565b6000613a9a601283612b9d565b9150613aa582613a64565b602082019050919050565b60006020820190508181036000830152613ac981613a8d565b9050919050565b7f4552433732314d657461646174613a2055524920717565727920666f72206e6f60008201527f6e6578697374656e7420746f6b656e0000000000000000000000000000000000602082015250565b6000613b2c602f83612b9d565b9150613b3782613ad0565b604082019050919050565b60006020820190508181036000830152613b5b81613b1f565b9050919050565b600081905092915050565b60008154613b7a816131a7565b613b848186613b62565b94506001821660008114613b9f5760018114613bb457613be7565b60ff1983168652811515820286019350613be7565b613bbd856136e8565b60005b83811015613bdf57815481890152600182019150602081019050613bc0565b838801955050505b50505092915050565b6000613bfb82612b92565b613c058185613b62565b9350613c15818560208601612bae565b80840191505092915050565b7f2e6a736f6e000000000000000000000000000000000000000000000000000000600082015250565b6000613c57600583613b62565b9150613c6282613c21565b600582019050919050565b6000613c798285613b6d565b9150613c858284613bf0565b9150613c9082613c4a565b91508190509392505050565b7f4555522f5553442070726963652066656564206572726f720000000000000000600082015250565b6000613cd2601883612b9d565b9150613cdd82613c9c565b602082019050919050565b60006020820190508181036000830152613d0181613cc5565b9050919050565b7f4554482f5553442070726963652066656564206572726f720000000000000000600082015250565b6000613d3e601883612b9d565b9150613d4982613d08565b602082019050919050565b60006020820190508181036000830152613d6d81613d31565b9050919050565b6000613d7f82612ad3565b9150613d8a83612ad3565b9250828202613d9881612ad3565b91508282048414831517613daf57613dae6132fc565b5b5092915050565b7f4e487b7100000000000000000000000000000000000000000000000000000000600052601260045260246000fd5b6000613df082612ad3565b9150613dfb83612ad3565b925082613e0b57613e0a613db6565b5b828204905092915050565b7f4f776e61626c653a206e6577206f776e657220697320746865207a65726f206160008201527f6464726573730000000000000000000000000000000000000000000000000000602082015250565b6000613e72602683612b9d565b9150613e7d82613e16565b604082019050919050565b60006020820190508181036000830152613ea181613e65565b9050919050565b6000613eb48284613bf0565b915081905092915050565b7f4552433732313a207472616e736665722066726f6d20696e636f72726563742060008201527f6f776e6572000000000000000000000000000000000000000000000000000000602082015250565b6000613f1b602583612b9d565b9150613f2682613ebf565b604082019050919050565b60006020820190508181036000830152613f4a81613f0e565b9050919050565b7f4552433732313a207472616e7366657220746f20746865207a65726f2061646460008201527f7265737300000000000000000000000000000000000000000000000000000000602082015250565b6000613fad602483612b9d565b9150613fb882613f51565b604082019050919050565b60006020820190508181036000830152613fdc81613fa0565b9050919050565b7f4f776e61626c653a2063616c6c6572206973206e6f7420746865206f776e6572600082015250565b6000614019602083612b9d565b915061402482613fe3565b602082019050919050565b600060208201905081810360008301526140488161400c565b9050919050565b7f4552433732313a20617070726f766520746f2063616c6c657200000000000000600082015250565b6000614085601983612b9d565b91506140908261404f565b602082019050919050565b600060208201905081810360008301526140b481614078565b9050919050565b7f4552433732313a207472616e7366657220746f206e6f6e20455243373231526560008201527f63656976657220696d706c656d656e7465720000000000000000000000000000602082015250565b6000614117603283612b9d565b9150614122826140bb565b604082019050919050565b600060208201905081810360008301526141468161410a565b9050919050565b7f455243373231456e756d657261626c653a20636f6e736563757469766520747260008201527f616e7366657273206e6f7420737570706f727465640000000000000000000000602082015250565b60006141a9603583612b9d565b91506141b48261414d565b604082019050919050565b600060208201905081810360008301526141d88161419c565b9050919050565b600081519050919050565b600082825260208201905092915050565b6000614206826141df565b61421081856141ea565b9350614220818560208601612bae565b61422981612bd8565b840191505092915050565b60006080820190506142496000830187612b68565b6142566020830186612b68565b6142636040830185612e2e565b818103606083015261427581846141fb565b905095945050505050565b60008151905061428f81612a44565b92915050565b6000602082840312156142ab576142aa612a0e565b5b60006142b984828501614280565b91505092915050565b60006142cd82612ad3565b91506142d883612ad3565b92508282039050818111156142f0576142ef6132fc565b5b92915050565b7f4e487b7100000000000000000000000000000000000000000000000000000000600052603160045260246000fd5b7f4552433732313a206d696e7420746f20746865207a65726f2061646472657373600082015250565b600061435b602083612b9d565b915061436682614325565b602082019050919050565b6000602082019050818103600083015261438a8161434e565b9050919050565b7f4552433732313a20746f6b656e20616c7265616479206d696e74656400000000600082015250565b60006143c7601c83612b9d565b91506143d282614391565b602082019050919050565b600060208201905081810360008301526143f6816143ba565b905091905056fea2646970667358221220a88b794684895ab25bf9d5a48f240de4cdc8612561814bc590f97d6b0e632bf564736f6c63430008120033",
  "linkReferences": {},
  "deployedLinkReferences": {}
}